:100000002BC045C044C043C042C041C040C03FC0F7
:100010003EC03DC03CC020C23AC039C038C037C025
:1000200036C000003A00370000003B0038000000F6
:100030000000000403020100000000003900360047
:100040000101010101010101020202020102040891
:10005000102040800402010811241FBECFE5D2E029
:10006000DEBFCDBF10E0A0E6B0E0E6ECF3E102C0F9
:1000700005900D92AE37B107D9F720E0AEE7B0E0BA
:1000800001C01D92AA3AB207E1F774D29AC9B8CF5B
:100090008A31910538F0469796958795969587957C
:1000A0000197F1F708953FB7F894809183009091FC
:1000B0008400A0918500B091860022B708B600FEAA
:1000C00005C02F3F19F00196A11DB11D3FBFBA2FEA
:1000D000A92F982F8827BC01CD01620F711D811DAA
:1000E000911D43E0660F771F881F991F4A95D1F72E
:1000F0000895CF92DF92EF92FF92CF93DF936B013F
:100100007C01D1DFEB01CFDF6C1B7D0B683E7340C0
:10011000A0F0C114D104E104F10439F4DF91CF91CE
:10012000FF90EF90DF90CF90089581E0C81AD1083A
:10013000E108F108C851DC4FE6CFC114D104E10455
:10014000F10409F7EBCF2FB7F89460917F0070911D
:10015000800080918100909182002FBF0895E8E98E
:10016000F0E0108281E08183828380E008951F9314
:10017000CF93DF93E82FF0E0EF59FF4FC08110E1FC
:100180001C0FD0E0C11728F46FEFCE010CD92196D7
:10019000F9CFDF91CF911F910895AF92BF92CF9287
:1001A000DF92EF92FF920F931F93CF93DF93182F5D
:1001B000E82FF0E0EF59FF4F008180E1F82EF00EBC
:1001C00098E9C92E90E0D92EC02FD0E08F2D815014
:1001D000990B5C01EC2EE01ACF15C8F4CE01DBD8E8
:1001E0008F3F91F0F60181936F01AC16BD0691F43B
:1001F000812FDF91CF911F910F91FF90EF90DF90B2
:10020000CF90BF90AF900895F1E0FE1588F3A7DF7F
:1002100010E0EECF2196DECF87FD8F7790E0FC01D6
:10022000E45BFF4F2491FC01E05CFF4FE491EE237F
:1002300071F0F0E0EE0FFF1FE65CFF4FA591B49167
:10024000EC91E22381E090E021F480E0089580E0E9
:1002500090E00895EF92FF921F93CF93DF938091E8
:10026000A9008093A80089E7E82E80E0F82ED0E06E
:10027000C0E010E0F70181917F01CEDF8130910570
:1002800031F40C2E01C0880F0A94EAF7180F21965A
:10029000C430D10579F71093A90064E170E080E0E3
:1002A00090E0DF91CF911F91FF90EF9022CF87FDDB
:1002B0008F7790E0FC01E25DFF4F3491FC01E45B3D
:1002C000FF4F2491FC01E05CFF4FE491EE23B9F075
:1002D000332329F03130A1F480B78F7780BFF0E06D
:1002E000EE0FFF1FE85DFF4FA591B4918FB761112D
:1002F00017C0F894EC9120952E232C938FBF08956E
:10030000323019F480B78F7DE9CF333021F48FB5C7
:100310008F778FBDE4CF343011F78FB58F7DF9CF54
:10032000F894EC912E2BE9CFAF92BF92CF92DF924F
:10033000EF92FF920F931F93CF93DF93B82E87E82E
:10034000E82E80E0F82EC1E0D0E00B2D10E0C801CF
:1003500085579F4F6C0107581F4FF701A1907F01F0
:10036000F6018081A8120CC0F801808155DF61E0A0
:10037000019709F460E0FE01EB59FF4F808197DFA0
:10038000809160008B1110C080916100A8120CC098
:10039000F801808141DF61E0019709F460E0FE012E
:1003A000EB59FF4F808183DF2196C530D105A9F637
:1003B000DF91CF911F910F91FF90EF90DF90CF9041
:1003C000BF90AF900895CF93C3E0EC2FF0E0EA59CF
:1003D000FF4F61E080816BDFC150B8F7CF91089586
:1003E000F2DF80E0A1DF81E09FDF82E09DDF83E03C
:1003F0009BCFCF93DF9387FD8F7790E0FC01E45B89
:10040000FF4F2491805C9F4FFC0184918823D1F0A1
:1004100090E0880F991FFC01EE5DFF4FA591B4910C
:10042000FC01E85DFF4FC591D491623071F49FB734
:10043000F8943C91822F809583238C93E8812E2B16
:1004400028839FBFDF91CF9108958FB7F894EC91E7
:100450002E2B2C938FBFF6CF1F920F920FB60F92B9
:1004600011242F933F938F939F93AF93BF938091CA
:100470007F0090918000A0918100B0918200309126
:100480007E0026E0230F2D3768F129E8230F03961D
:10049000A11DB11D20937E0080937F00909380006A
:1004A000A0938100B093820080918300909184009A
:1004B000A0918500B09186000196A11DB11D809389
:1004C000830090938400A0938500B0938600BF9131
:1004D000AF919F918F913F912F910F900FBE0F90F1
:1004E0001F9018950296A11DB11DD4CFCF93DF9315
:1004F000E82FF0E0EF59FF4FC081C60FDD27DD1F69
:10050000642FCE0150D76FEFCE010196DF91CF91CE
:100510004AC760E084E0CBDE64EF71E080E090E009
:10052000E8DD61E084E0C3DE64EF71E080E090E04C
:10053000E0DD49CF1F93CF93DF93C6E6D0E019915A
:10054000812F6ADE61E0892B09F060E0812FAFDE48
:1005500080E0CA36D80799F764E670E080E090E062
:10056000C8DD78DE8091A9008111E7CFDF91CF91BE
:100570001F9129CFCF93DF9300D000D0CDB7DEB746
:1005800083E080BF92E093BF789489B7816089BF90
:1005900081E08FBD9EBD83E886B984B714BE61E05B
:1005A0008BE027DF60E08BE082DE06E610E0B7E854
:1005B000EB2EB0E0FB2E8BE8C82E80E0D82E1982FF
:1005C00029812F5F2983F60121936F01F701219380
:1005D0007F0162E0F80181918F010BDFF981F43036
:1005E00079F762E083E005DF62E082E002DF62E04B
:1005F00081E0FFDE62E080E0FCDE06E610E01982CA
:1006000061E0F80181918F01F4DE89818DDEF9814D
:10061000FF5FF983F430A1F7E8E9F0E08FEF819311
:1006200020E0E83AF207D9F780E390E0B4D68535C8
:1006300051F082E09CDD83E09ADD84E098DD65E5A1
:1006400080E390E0B0D6A9E7EA2EA0E0FA2E10E011
:1006500000E01982F70181917F01DEDD8130910593
:1006600041F4002E01C0880F0A94EAF7F981F80FCF
:10067000F9830F5F1F4F0430110561F72981223084
:1006800009F4ADC020F4213059F069DD17C039817B
:10069000343009F4A6C084E03830B9F77EDD0EC0EE
:1006A0001092980082E080939900498140939A00CB
:1006B00085E080939B0086E080939C00E8EE2E2EE0
:1006C000E3E03E2EF0ED4F2EF7E05F2E73E0772E45
:1006D00080919600882309F410C175DE64E670E00D
:1006E00080E090E006DD0AE610E086E690E09B837D
:1006F0008A8360E0EA81FB818191FB83EA83D7DD15
:1007000064E670E080E090E0F4DC2A813B8102172F
:10071000130779F706E610E061E0F80181918F0197
:10072000C6DD64E670E080E090E0E3DC2A813B8196
:100730002017310789F7FEDE8DDD3091A90039835E
:100740008091A8003817C1F33EDE4981443009F496
:100750004AC0483009F44DC0423071F760E085E08E
:10076000A6DD62E0F62E76DD2091A9008091A8003A
:100770002817C9F35981852F90E00196281719068B
:1007800009F03DC020DEC5DE8F2DF1DC40E060E0E9
:100790008F2DACDEEE24E394CDDE19825BDD8091FB
:1007A000A9008A838091A8009A819817B9F30BDE7B
:1007B000EA81EF3008F060C0F0E0E052FC4F0994AD
:1007C000ECCF5AC020C058C024C056C028C054C066
:1007D0002FC052C033C050C03AC04EC041C082E0AA
:1007E0005DCF83E05BCF60E086E061DD53E0F52E16
:1007F000BACF60E08AE05BDD44E0F42EB4CFE3DD05
:100800009BCFEA80C9CF60E085E051DDF1E0F9835C
:10081000C5CF60E086E04BDD22E02983BFCF60E0FA
:1008200085E045DD60E086E042DD33E03983B6CF28
:1008300060E08AE03CDD44E04983B0CF60E085E0E1
:1008400036DD60E08AE033DD55E05983A7CF60E014
:1008500086E02DDD60E08AE02ADD86E089839ECF98
:1008600060E085E024DD60E086E021DD60E08AE094
:100870001EDD97E0998392CF4CDEE1E0EE0DEA8336
:1008800049816E2D8F2D32DEFA81F03109F0B9CF1A
:100890009ADD64E670E080E090E02BDC26E630E054
:1008A0003B832A8390DD60E0EA81FB818191FB83B9
:1008B000EA83FDDC64E670E080E090E01ADC2A81E7
:1008C0003B810217130771F74AE650E05B834A83C6
:1008D0007ADD60E0EA81FB818291FB83EA83E7DCD9
:1008E00064E670E080E090E004DC26E630E04A81D7
:1008F0005B812417350761F7D1CF80919500811175
:1009000076C0E0919700F0E0E856FF4FE081E830D4
:1009100008F02DC5F0E0E257FB4F09944EC006C029
:10092000F3C08DC139C281C2BCC2F5C251E050933F
:10093000870082E0809388007092890084E0809331
:100940008A008FEF80938B0080938C0080938D00C2
:1009500080938E00809361008093600010E004E03B
:100960002BE8E22E20E0F22E39E7A32E30E0B32E62
:10097000C12CF50181915F014FDCF70120810197C6
:1009800009F0AFC02F3F09F0AFC0113009F4B3C078
:1009900008F4ADC0123009F4B1C0133009F4B1C08D
:1009A000C394FFEFEF1AFF0A24E0C212E2CF143023
:1009B000B9F631E0309395001AC091E090938B0026
:1009C0009093870082E080938C00809388007092DF
:1009D0008D007092890084E080938E0080938A005D
:1009E000EFEFE0936100E09360009093950032DCBC
:1009F000F7DC2091A9008091A800281709F468CE9F
:100A000080919400853008F0B5C48F5F8093940086
:100A100050916200809197008983E82FF0E0E856BA
:100A2000FF4F1081EFE8F0E090E080E041E031E03E
:100A3000843009F4A7C4618160837081552331F04B
:100A4000DC01AC58BF4F6C91761340E0DC01111112
:100A50009CC4A159BF4F6C91761330E0019631963A
:100A60008530910529F7552309F492C4442309F4EC
:100A70008FC481E08093960080919600811126CEEC
:100A8000C12CD12C7601E6DBABDC8091A900811171
:100A9000F7CFC114D104E104F10449F454DB6B0134
:100AA0007C01E8EBCE0EEBE0DE1EE11CF11C4BDB23
:100AB000C616D706E806F90630F7F981FF5FF98315
:100AC000F09397002F2FEF2FF0E0E856FF4F908123
:100AD0009F3F11F0203111F4109297001092950071
:100AE000F5CD2F3F09F45CCF8C2D1EDC59CF21E0D2
:100AF000208311E055CF008312E052CF108313E022
:100B00004FCF108314E04CCFDD24DA9409E710E0D6
:100B1000FF24FA94E12CF80181918F017DDB01978C
:100B200041F4FFEFDF1609F45DC0FF1202C0ED10C3
:100B30005BC08E2DF9DBE39424E0E212ECCF3FEFB3
:100B4000F31621F38D2D90E0FC01E557FF4F208136
:100B5000E7E8F0E0A12C41914983421741F0A394CA
:100B600054E0A512F8CFAA24AA94EFEFE9830F2D41
:100B700010E0F801E557FF4F2081E7E8F0E0B12CE5
:100B80006190621641F0B39434E0B312F9CFBB2404
:100B9000BA9466246A94C12CD12C7601AC014758D2
:100BA0005F4F5B834A8307581F4F54DB19DC9091DA
:100BB000A9008091A800981311C0EA81FB81808070
:100BC000882D2ADBF8019080019781F0882D24DBA5
:100BD000019721F0892D20DB019761F4C12CD12CE4
:100BE0007601E3CFDE2CA5CFFE2CA3CF892D14DB1D
:100BF000019761F7C114D104E104F10449F4A3DAC7
:100C00006B017C01F8EBCF0EFBE0DF1EE11CF11C59
:100C10009ADAC616D706E806F90638F6EA2DF0E0A5
:100C2000E957FF4F6082EB2DF0E0E957FF4F298134
:100C30002083BFCE0F5F1F4F0430110531F499E7B9
:100C4000E92E90E0F92E10E000E00983F701B19061
:100C50007F018B2DE1DA019769F7802F65DBC12CCD
:100C6000D12C7601F7DABCDB9091A9008091A80025
:100C70009813F5CFC114D104E104F10449F463DA07
:100C80006B017C01F8EBCF0EFBE0DF1EE11CF11CD9
:100C90005ADAC616D706E806F90620F78B2DBCDA15
:100CA00005571F4F019709F06AC088EEE82E83E0D0
:100CB000F82EA6E6CA2EA0E0DA2EB7E8AB2EB0E0FA
:100CC000BB2EF801F081FA83F50191905F01FA8162
:100CD000F91104C060E0F6018081E9DAF09160006A
:100CE000FC832981F21308C080916100981204C02E
:100CF00060E0F6018081DBDA911004C061E0F6016A
:100D00008081D5DAFFEFCF1ADF0A2BE830E02A1511
:100D10003B05B9F6C701BCD9E6E6CE2EE0E0DE2EF3
:100D2000F7E88F2EF0E09F2EF40161904F01FA81D9
:100D3000F61104C061E0F6018081B9DAFC812981F5
:100D4000F21308C080916100681204C061E0F601EE
:100D50008081ADDA611004C060E0F6018081A7DA1D
:100D6000FFEFCF1ADF0AA814B904F1F6C1018E19FA
:100D70009F098ED921E0E21AF10809F09ACFF80113
:100D8000108280916000F9818F1313CE2FEF209392
:100D90006100209360000DCE79E7E72E70E0F72E1A
:100DA00010E000E0C02EF70181917F0135DA019754
:100DB00031F00F5F1F4F04301105A1F7EDCFF8019F
:100DC000E557FF4F8081E7E8F0E0D12C919189173A
:100DD00031F0D39424E0D212F9CFDD24DA9469E71C
:100DE000E62E60E0F62E10E000E0F70181917F0131
:100DF00013DA019711F4C01206C00F5F1F4F0430C1
:100E0000110599F7ECCFED2DF0E0E957FF4FD80130
:100E1000A557BF4F8C918083F1E0F0939500E7CD0B
:100E20000F5F1F4F0430110531F459E7E52E50E0F4
:100E3000F52E10E000E0F70181917F01EDD90197D7
:100E400079F7F801E557FF4F2081E7E8F0E090E0FF
:100E500080E0211119C0A7E8B0E090E080E02D917A
:100E6000EBE8F0E03191231751F04FE850E04E17D6
:100E70005F07C1F789579F4FFC0110829ACD0196F9
:100E80008430910561F795CD3191231799F301963F
:100E900084309105C9F78DCD0F5F1F4F04301105C8
:100EA00031F449E7E42E40E0F42E10E000E0D02ECB
:100EB000F70181917F01B0D9019771F7F801E557EA
:100EC000FF4FC080C0926100108209E710E0F12C52
:100ED000E12CDE100CC08D2D27DA2FEFE21AF20A7A
:100EE0000F5F1F4F34E0E316F10499F7EECFF801DE
:100EF000808192D9019789F7E0926000F701E55768
:100F0000FF4F8081811155CDC082FFEFF0936100CA
:100F1000F09360004ECD4FEF40936100409360002E
:100F200040938B0040938C0040938D0040938E0043
:100F300051E050938700509388005093890050935C
:100F40008A00D12C0BE810E039E7E32E30E0F32ED5
:100F5000F70181917F0160D9019709F0EEC1F80195
:100F600080818F3F09F0E9C1D3941082F3E0DF1252
:100F7000E4C1EBE8F0E090E080E021912F3F09F040
:100F8000D6C185579F4F21E0FC01208363D928DA21
:100F90008091A9008F30D1F709E710E0F12CF8011A
:100FA00081918F0139D9019709F4D0C1E7E8F0E0C8
:100FB00080E0F81611F02FEF20838F5F3196843098
:100FC000C1F70EDAE7E8F0E0ABE8B0E00FEFBB24E2
:100FD000BA9480E09D91913009F4082F919191305D
:100FE00009F4B82E8F5F8430A9F781E08B0D84302F
:100FF00010F08DEF8B0D22E0A22EA00E43E04A15DB
:1010000018F49EEFA92EA00E882E912CF401E9571A
:10101000FF4F82E08083C12CD12C76011BD9E0D90F
:101020008091A9008F30B9F7C114D104E104F10413
:1010300049F489D86B017C0158E8C50E53E1D51EEF
:10104000E11CF11C80D8C616D706E806F90630F771
:1010500010E005571F4FF8011082D12CC12CEB2D49
:10106000F0E0EA59FF4FB08061E08B2D20D9C60136
:101070000FD860E08B2D1BD9C1018C199D0908D8B0
:10108000FFEFCF1ADF0A28EEC21623E0D20661F77F
:1010900061E08B2D0CD9C12CD12C7601DBD8A0D9E5
:1010A0008091A9008F30B9F7C114D104E104F10493
:1010B00049F449D86B017C0138E8C30E33E1D31EF3
:1010C000E11CF11C40D8C616D706E806F90630F731
:1010D00082E0F801808310E000E0F401EA59FF4F5C
:1010E000F08060E08F2DE3D8C801D2D761E08F2D6A
:1010F000DED8C201801B910BCBD70F5F1F4F003D85
:10110000F7E01F0771F760E08F2DD1D8C12CD12CEB
:101110007601A0D865D98091A9008F30B9F7C114A4
:10112000D104E104F10449F40ED86B017C0120EAFA
:10113000C20E2FE0D21EE11CF11C05D8C616D70640
:10114000E806F90630F7EA2DF0E0E557FF4F31E009
:10115000308310E000E060E08B2DA9D8C80198D75B
:1011600061E08B2DA4D8C201801B910B91D70F5F3A
:101170001F4F003D47E0140771F760E08B2D97D8B3
:10118000EBE8F0E088248A94912C8191811104C0CD
:101190005FEF851207C0892C939484E09812F5CFF5
:1011A00099249A94C12CD12C7601882D90E0FC01D1
:1011B000E758FF4F5F01092D10E007581F4F5C2DC6
:1011C0004D2D3E2D2F2DC52ED42EE32EF22E42D89E
:1011D00007D9F501808120D8019709F4BCC0F80136
:1011E00080811AD850E040E030E020E0019759F3C8
:1011F000C114D104E104F10449F4A5D76B017C01C9
:10120000F8EBCF0EFBE0DF1EE11CF11C9CD7C616ED
:10121000D706E806F90698F6E7E8F0E081918F3FF7
:1012200019F4DF0111971C9220E0EB38F207B1F7B7
:10123000F12C10E000E0802F801611F090128FC08A
:10124000F801E758FF4F8081E7D7019739F4F8019B
:10125000E557FF4F33E03083FF24F3940F5F1F4FB8
:101260000430110541F7FF2019F3C12CD12C760170
:10127000F1D7B6D88091A9008111F7CFC114D1045C
:10128000E104F10449F45FD76B017C0148EBC40E23
:101290004BE0D41EE11CF11C56D7C616D706E80653
:1012A000F90630F7E7E8F0E090E080E021912111C5
:1012B00058C089579F4F23E0FC012083CBD790D89B
:1012C0008091A9008823D1F3C12CD12C7601C2D7FB
:1012D00087D88091A9008111F7CFC114D104E1040E
:1012E000F10449F430D76B017C0138EBC30E3BE0CD
:1012F000D31EE11CF11C27D7C616D706E806F9064F
:1013000030F741E040938B004093870082E0809368
:101310008C008093880070928D007092890084E028
:1013200080938E0080938A004093950060CB019655
:101330008430910509F021CE05CE0F5F1F4F3DE7A8
:10134000E31630E0F30609F003CEFCCDF39434E06D
:10135000F31225CE21CEC12CD12C760138CFE4D783
:101360007DCF01968430910509F0A0CFA7CF1092D0
:1013700097003DCB80916200882309F449CB1092FD
:10138000620046CB2093930058CBA659BF4F63CB46
:10139000311172CB9BC9E199FECF9FBB8EBBE09A06
:1013A00099278DB30895262FE199FECF1CBA9FBBD4
:1013B0008EBB2DBB0FB6F894E29AE19A0FBE019650
:0613C0000895F894FFCF30
:1013C600FFFF010010200405060A0F0706020000B1
:0E13D60001090B0F0A0B090D050302010000AF
:00000001FF
