:100000002BC045C044C043C042C041C040C03FC0F7
:100010003EC03DC03CC020C23AC039C038C037C025
:1000200036C000003A00370000003B0038000000F6
:100030000000000403020100000000003900360047
:100040000101010101010101020202020102040891
:10005000102040800402010811241FBECFE5D2E029
:10006000DEBFCDBF10E0A0E6B0E0E6E2F3E102C003
:1000700005900D92AE37B107D9F720E0AEE7B0E0BA
:1000800001C01D92AA3AB207E1F774D24AC9B8CFAB
:100090008A31910538F0469796958795969587957C
:1000A0000197F1F708953FB7F894809183009091FC
:1000B0008400A0918500B091860022B708B600FEAA
:1000C00005C02F3F19F00196A11DB11D3FBFBA2FEA
:1000D000A92F982F8827BC01CD01620F711D811DAA
:1000E000911D43E0660F771F881F991F4A95D1F72E
:1000F0000895CF92DF92EF92FF92CF93DF936B013F
:100100007C01D1DFEB01CFDF6C1B7D0B683E7340C0
:10011000A0F0C114D104E104F10439F4DF91CF91CE
:10012000FF90EF90DF90CF90089581E0C81AD1083A
:10013000E108F108C851DC4FE6CFC114D104E10455
:10014000F10409F7EBCF2FB7F89460917F0070911D
:10015000800080918100909182002FBF0895E8E98E
:10016000F0E0108281E08183828380E008951F9314
:10017000CF93DF93E82FF0E0EF59FF4FC08110E1FC
:100180001C0FD0E0C11728F46FEFCE01BCD8219628
:10019000F9CFDF91CF911F910895AF92BF92CF9287
:1001A000DF92EF92FF920F931F93CF93DF93182F5D
:1001B000E82FF0E0EF59FF4F008180E1F82EF00EBC
:1001C00098E9C92E90E0D92EC02FD0E08F2D815014
:1001D000990B5C01EC2EE01ACF15C8F4CE018BD838
:1001E0008F3F91F0F60181936F01AC16BD0691F43B
:1001F000812FDF91CF911F910F91FF90EF90DF90B2
:10020000CF90BF90AF900895F1E0FE1588F3A7DF7F
:1002100010E0EECF2196DECF87FD8F7790E0FC01D6
:10022000E45BFF4F2491FC01E05CFF4FE491EE237F
:1002300071F0F0E0EE0FFF1FE65CFF4FA591B49167
:10024000EC91E22381E090E021F480E0089580E0E9
:1002500090E00895EF92FF921F93CF93DF938091E8
:10026000A9008093A80089E7E82E80E0F82ED0E06E
:10027000C0E010E0F70181917F01CEDF8130910570
:1002800031F40C2E01C0880F0A94EAF7180F21965A
:10029000C430D10579F71093A90064E170E080E0E3
:1002A00090E0DF91CF911F91FF90EF9022CF87FDDB
:1002B0008F7790E0FC01E25DFF4F3491FC01E45B3D
:1002C000FF4F2491FC01E05CFF4FE491EE23B9F075
:1002D000332329F03130A1F480B78F7780BFF0E06D
:1002E000EE0FFF1FE85DFF4FA591B4918FB761112D
:1002F00017C0F894EC9120952E232C938FBF08956E
:10030000323019F480B78F7DE9CF333021F48FB5C7
:100310008F778FBDE4CF343011F78FB58F7DF9CF54
:10032000F894EC912E2BE9CFAF92BF92CF92DF924F
:10033000EF92FF920F931F93CF93DF93B82E87E82E
:10034000E82E80E0F82EC1E0D0E00B2D10E0C801CF
:1003500085579F4F6C0107581F4FF701A1907F01F0
:10036000F6018081A8120CC0F801808155DF61E0A0
:10037000019709F460E0FE01EB59FF4F808197DFA0
:10038000809160008B1110C080916100A8120CC098
:10039000F801808141DF61E0019709F460E0FE012E
:1003A000EB59FF4F808183DF2196C530D105A9F637
:1003B000DF91CF911F910F91FF90EF90DF90CF9041
:1003C000BF90AF900895CF93C3E0EC2FF0E0EA59CF
:1003D000FF4F61E080816BDFC150B8F7CF91089586
:1003E000F2DF80E0A1DF81E09FDF82E09DDF83E03C
:1003F0009BCFCF93DF9387FD8F7790E0FC01E45B89
:10040000FF4F2491805C9F4FFC0184918823D1F0A1
:1004100090E0880F991FFC01EE5DFF4FA591B4910C
:10042000FC01E85DFF4FC591D491623071F49FB734
:10043000F8943C91822F809583238C93E8812E2B16
:1004400028839FBFDF91CF9108958FB7F894EC91E7
:100450002E2B2C938FBFF6CF1F920F920FB60F92B9
:1004600011242F933F938F939F93AF93BF938091CA
:100470007F0090918000A0918100B0918200309126
:100480007E0026E0230F2D3768F129E8230F03961D
:10049000A11DB11D20937E0080937F00909380006A
:1004A000A0938100B093820080918300909184009A
:1004B000A0918500B09186000196A11DB11D809389
:1004C000830090938400A0938500B0938600BF9131
:1004D000AF919F918F913F912F910F900FBE0F90F1
:1004E0001F9018950296A11DB11DD4CFCF93DF9315
:1004F000E82FF0E0EF59FF4FC081C60FDD27DD1F69
:10050000642FCE0100D76FEFCE010196DF91CF911E
:10051000FAC660E084E0CBDE64EF71E080E090E05A
:10052000E8DD61E084E0C3DE64EF71E080E090E04C
:10053000E0DD49CF1F93CF93DF93C6E6D0E019915A
:10054000812F6ADE61E0892B09F060E0812FAFDE48
:1005500080E0CA36D80799F764E670E080E090E062
:10056000C8DD78DE8091A9008111E7CFDF91CF91BE
:100570001F9129CFCF93DF9300D01F92CDB7DEB765
:1005800083E080BF92E093BF789489B7816089BF90
:1005900081E08FBD9EBD83E886B984B714BE61E05B
:1005A0008BE027DF60E08BE082DE06E610E0E7E824
:1005B000EE2EE0E0FE2EFBE8CF2EF0E0DF2E1982DB
:1005C00029812F5F2983F60121936F01F701219380
:1005D0007F0162E0F80181918F010BDFF981F43036
:1005E00079F762E083E005DF62E082E002DF62E04B
:1005F00081E0FFDE62E080E0FCDE06E610E01982CA
:1006000061E0F80181918F01F4DE89818DDEF9814D
:10061000FF5FF983F430A1F7E8E9F0E08FEF819311
:1006200020E0E83AF207D9F780E390E064D6853518
:1006300051F082E09CDD83E09ADD84E098DD65E5A1
:1006400080E390E060D679E7E72E70E0F72E10E0C7
:1006500000E01982F70181917F01DEDD8130910593
:1006600041F4002E01C0880F0A94EAF7F981F80FCF
:10067000F9830F5F1F4F0430110561F72981223084
:1006800009F4A9C020F4213059F069DD17C039817F
:10069000343009F4A2C084E03830B9F77EDD0EC0F2
:1006A0001092980082E080939900498140939A00CB
:1006B00085E080939B0086E080939C0068EE462E48
:1006C00063E0562E53E0752E80919600882309F43E
:1006D00010C179DE64E670E080E090E00ADD0AE6B1
:1006E00010E086E690E09A83898360E0E981FA81F0
:1006F0008191FA83E983DBDD64E670E080E090E0DD
:10070000F8DC29813A810217130779F706E610E031
:1007100061E0F80181918F01CADD64E670E080E05C
:1007200090E0E7DC29813A812017310789F702DF61
:1007300091DD3091A90039838091A8003817C1F369
:1007400042DE4981443009F44AC0483009F44DC0C2
:10075000423071F760E085E0AADD42E0F42E7ADDF8
:100760002091A9008091A8002817C9F35981852FED
:1007700090E001962817190609F03DC024DEC9DE75
:100780008F2DF5DC40E060E08F2DB0DEEE24E394A9
:10079000D1DE19825FDD8091A9008B838091A80052
:1007A0009B819817B9F30FDEEB81EF3008F060C042
:1007B000F0E0E452FC4F0994ECCF5AC020C058C07E
:1007C00024C056C028C054C02FC052C033C050C02F
:1007D0003AC04EC041C082E061CF83E05FCF60E0AD
:1007E00086E065DD33E0F32EBACF60E08AE05FDDBE
:1007F00024E0F22EB4CFE7DD9BCFEB80C9CF60E0E1
:1008000085E055DDF1E0F983C5CF60E086E04FDD9E
:1008100022E02983BFCF60E085E049DD60E086E02B
:1008200046DD33E03983B6CF60E08AE040DD44E066
:100830004983B0CF60E085E03ADD60E08AE037DDF3
:1008400055E05983A7CF60E086E031DD60E08AE0C3
:100850002EDD86E089839ECF60E085E028DD60E0C4
:1008600086E025DD60E08AE022DD97E0998392CF83
:1008700050DEE1E0EE0DEB8349816E2D8F2D36DEEB
:10088000FB81F03109F0B9CF9EDD64E670E080E0D5
:1008900090E02FDC26E630E03A83298394DD60E0A7
:1008A000E981FA818191FA83E98301DD64E670E0F0
:1008B00080E090E01EDC29813A810217130771F76E
:1008C0004AE650E05A8349837EDD60E0E981FA819F
:1008D0008291FA83E983EBDC64E670E080E090E0EB
:1008E00008DC26E630E049815A812417350761F794
:1008F000D1CF80919500811176C0E0919700F0E012
:10090000E856FF4FE081E83008F0E1C4F0E0E65738
:10091000FB4F09944EC006C0F3C08EC135C27DC2E4
:10092000B8C2ECC251E05093870082E08093880007
:100930007092890084E080938A008FEF80938B000F
:1009400080938C0080938D0080938E008093610053
:100950008093600010E004E08BE8E82E80E0F82E41
:1009600099E7A92E90E0B92EC12CF50181915F0184
:1009700053DCF7012081019709F0AFC02F3F09F048
:10098000AFC0113009F4B3C008F4ADC0123009F49F
:10099000B1C0133009F4B1C0C394FFEFEF1AFF0ADE
:1009A00024E0C212E2CF1430B9F631E03093950062
:1009B0001AC091E090938B009093870082E080931F
:1009C0008C008093880070928D007092890084E082
:1009D00080938E0080938A00EFEFE0936100E093B4
:1009E00060009093950036DCFBDC2091A90080919B
:1009F000A800281709F468CE80919400853008F08B
:100A000069C48F5F80939400509162008091970039
:100A10008983E82FF0E0E856FF4F1081EFE8F0E01F
:100A200090E080E041E031E0843009F45BC4618112
:100A300060837081552331F0DC01AC58BF4F6C915D
:100A4000761340E0DC01111150C4A159BF4F6C91E5
:100A5000761330E0019631968530910529F75523BC
:100A600009F446C4442309F443C481E0809396000A
:100A700080919600811126CEC12CD12C7601EADB23
:100A8000AFDC8091A9008111F7CFC114D104E1043A
:100A9000F10449F458DB6B017C01E8EBCE0EEBE08E
:100AA000DE1EE11CF11C4FDBC616D706E806F90670
:100AB00030F7F981FF5FF983F09397002F2FEF2F25
:100AC000F0E0E856FF4F90819F3F11F0203111F484
:100AD0001092970010929500F5CD2F3F09F45CCF4E
:100AE0008C2D22DC59CF21E0208311E055CF0083EB
:100AF00012E052CF108313E04FCF108314E04CCF9D
:100B0000DD24DA9409E710E0EE24EA94F12CF801F0
:100B100081918F0181DB019741F4FFEFDF1609F42A
:100B20005CC0EF1202C0FD105AC08F2DFDDBF394A4
:100B300024E0F212ECCF3FEFE31621F30D2D10E08D
:100B4000F801E557FF4F8081E7E8F0E0C12CF19014
:100B5000F81641F0C39444E0C412F9CFCC24CA94EF
:100B6000FF24FA948E2D90E0FC01E557FF4F208181
:100B7000E7E8F0E0D12C6190621641F0D39454E0A4
:100B8000D512F9CFDD24DA9466246A94812C912C55
:100B9000540107581F4FFC01E758FF4FFA83E983C0
:100BA00059DB1EDC9091A9008091A800981311C018
:100BB000F8012080822D30DBE981FA8130800197B5
:100BC00081F0822D29DB019721F0832D25DB019710
:100BD00061F4812C912C5401E3CFDF2CA6CFEF2CB4
:100BE000A4CF832D19DB019761F781149104A1042F
:100BF000B10449F4A8DA4B015C01F8EB8F0EFBE07D
:100C00009F1EA11CB11C9FDA86169706A806B9067E
:100C100038F6EC2DF0E0E957FF4F6082ED2DF0E063
:100C2000E957FF4FF08221E020939500DCCE0F5F63
:100C30001F4F0430110531F419E7E12E10E0F12EB9
:100C400010E000E0602EF701B1907F018B2DE4DA17
:100C5000019769F7802F68DBC12CD12C7601FADA75
:100C6000BFDB9091A9008091A8009813F5CFC11423
:100C7000D104E104F10449F466DA6B017C01F8EB7C
:100C8000CF0EFBE0DF1EE11CF11C5DDAC616D706B5
:100C9000E806F90620F78B2DBFDA05571F4F01979D
:100CA00009F066C0B8EEEB2EB3E0FB2EF6E6CF2ED1
:100CB000F0E0DF2EA7E8AA2EA0E0BA2EF801F0811E
:100CC000F983F50191905F01F981F91104C060E0A9
:100CD000F6018081ECDA20906000261008C0809137
:100CE0006100981204C060E0F6018081E0DA9110A2
:100CF00004C061E0F6018081DADAFFEFCF1ADF0A83
:100D00002BE830E02A153B05C9F6C701C1D976E6C4
:100D1000C72E70E0D72EE7E88E2EE0E09E2EF4017D
:100D200031904F01F981F31104C061E0F601808137
:100D3000BEDA261008C080916100381204C061E05C
:100D4000F6018081B4DA311004C060E0F6018081E0
:100D5000AEDAFFEFCF1ADF0AA814B90401F7C20117
:100D60008E199F0995D921E0E21AF10809F09ECF6A
:100D7000F801108280916000861117CEFFEFF0938A
:100D80006100F093600011CE69E7E62E60E0F62E78
:100D900010E000E0C02EF70181917F013DDA01975C
:100DA00031F00F5F1F4F04301105A1F7EDCFF801AF
:100DB000E557FF4F8081E7E8F0E0D12C919189174A
:100DC00031F0D39424E0D212F9CFDD24DA9459E73C
:100DD000E52E50E0F52E10E000E0F70181917F0153
:100DE0001BDA019711F4C01206C00F5F1F4F0430C9
:100DF000110599F7ECCFED2DF0E0E957FF4FD80141
:100E0000A557BF4F8C918083F1E0F0939500EBCD17
:100E10000F5F1F4F0430110531F449E7E42E40E025
:100E2000F42E10E000E0F70181917F01F5D90197E0
:100E300079F7F801E557FF4F2081E7E8F0E090E00F
:100E400080E0211119C0A7E8B0E090E080E02D918A
:100E5000EBE8F0E03191231751F04FE850E04E17E6
:100E60005F07C1F789579F4FFC0110829ECD019605
:100E70008430910561F799CD3191231799F301964B
:100E800084309105C9F791CD0F5F1F4F04301105D4
:100E900031F439E7E32E30E0F32E10E000E0D02EFD
:100EA000F70181917F01B8D9019771F7F801E557F2
:100EB000FF4FC080C0926100108209E710E0F12C62
:100EC000E12CDE100CC08D2D2FDA2FEFE21AF20A82
:100ED0000F5F1F4F34E0E316F10499F7EECFF801EE
:100EE00080819AD9019789F7E0926000F701E55770
:100EF000FF4F8081811159CDC08240CF4FEF409389
:100F000061004093600040938B0040938C004093BD
:100F10008D0040938E0051E05093870050938800DD
:100F20005093890050938A00D12C0BE810E029E7F8
:100F3000E22E20E0F22EF70181917F016DD9019719
:100F400009F0ABC1F80180818F3F09F0A6C1D394AD
:100F50001082F3E0DF12A1C1EBE8F0E090E080E066
:100F600021912F3F09F093C185579F4F21E0FC014C
:100F7000208370D935DA8091A9008F30D1F709E745
:100F800010E0F12CF80181918F0146D9019709F405
:100F90008DC1E7E8F0E080E0F81611F02FEF208334
:100FA0008F5F31968430C1F71BDAE7E8F0E0ABE8F9
:100FB000B0E01FEFEE24EA9480E09D91913009F4B7
:100FC000182F9191913009F4E82E8F5F8430A9F7A2
:100FD00001E00E0D043010F00DEF0E0D92E0692EC1
:100FE000610E43E0461518F48EEF682E610E812CD9
:100FF000912C54012FD9F4D98091A9008F30B9F7E1
:1010000081149104A104B10449F49DD84B015C0101
:1010100058E8850E53E1951EA11CB11C94D8861684
:101020009706A806B90630F7E12FF0E0E557FF4F25
:1010300082E08083D12CC12C10E0F801EA59FF4FE7
:101040009080F12CC7018A599F4F7C0160E0892D67
:101050002ED9F701A08061E08A2D29D9C60118D8C0
:1010600061E0892D24D960E08A2D21D9C2018C1933
:101070009D090ED8FFEFCF1ADF0A28EEC21623E033
:10108000D20621F760E0892D12D961E08A2D0FD9AF
:10109000F801E957FF4F82E0808368E873E180E060
:1010A00090E027D810E000E060E08A2D00D9C80168
:1010B000EFD761E08A2DFBD880ED97E0801B910B84
:1010C000E7D70F5F1F4F003D37E0130769F760E078
:1010D0008A2DEDD8E62DF0E0E557FF4F41E0408343
:1010E000EBE8F0E0CC24CA94D12C8191811104C0AA
:1010F0005FEFC51207C0CD2CD39484E0D812F5CF92
:10110000DD24DA94812C912C54010C2D10E0075829
:101110001F4F8D2D90E0FC01E758FF4F7F01582DA8
:10112000492D3A2D2B2D852E942EA32EB22E92D8FA
:1011300057D9F801808170D8019709F4BCC0F70134
:1011400080816AD850E040E030E020E0019759F318
:1011500081149104A104B10449F4F5D74B015C0159
:10116000F8EB8F0EFBE09F1EA11CB11CECD786167E
:101170009706A806B90698F6E7E8F0E081918F3F58
:1011800019F4DF0111971C9220E0EB38F207B1F758
:10119000F12C10E000E0802FC01611F0D0128FC0AB
:1011A000F801E758FF4F808137D8019739F4F801EB
:1011B000E557FF4F33E03083FF24F3940F5F1F4F59
:1011C0000430110541F7FF2019F3C12CD12C760111
:1011D00041D806D98091A9008111F7CFC114D1045B
:1011E000E104F10449F4AFD76B017C0148EBC40E74
:1011F0004BE0D41EE11CF11CA6D7C616D706E806A4
:10120000F90630F7E7E8F0E090E080E02191211165
:1012100058C089579F4F23E0FC0120831BD8E0D89A
:101220008091A9008823D1F3C12CD12C760112D84A
:10123000D7D88091A9008111F7CFC114D104E1045E
:10124000F10449F480D76B017C0138EBC30E3BE01D
:10125000D31EE11CF11C77D7C616D706E806F9069F
:1012600030F741E040938B004093870082E0809309
:101270008C008093880070928D007092890084E0C9
:1012800080938E0080938A0040939500ACCB0196AA
:101290008430910509F064CE48CE0F5F1F4F3DE7C3
:1012A000E31630E0F30609F046CE3FCEF39434E087
:1012B000F31268CE64CE812C912C540138CF34D8EF
:1012C0007DCF01968430910509F0A0CFA7CF109271
:1012D000970089CB80916200882309F495CB109206
:1012E000620092CB20939300A4CBA659BF4FAFCB03
:1012F0003111BECBE7C9E199FECF9FBB8EBBE09A0F
:1013000099278DB30895262FE199FECF1CBA9FBB74
:101310008EBB2DBB0FB6F894E29AE19A0FBE0196F0
:061320000895F894FFCFD0
:10132600FFFF010010200405060A0F070602000051
:0E13360001090B0F0A0B090D0503020100004F
:00000001FF
